{
  "_format": "hh-sol-artifact-1",
  "contractName": "Megatron",
  "sourceName": "contracts/Megatron.sol",
  "abi": [
    {
      "inputs": [],
      "stateMutability": "nonpayable",
      "type": "constructor"
    },
    {
      "inputs": [
        {
          "internalType": "address",
          "name": "to",
          "type": "address"
        }
      ],
      "name": "giveVoteTokens",
      "outputs": [],
      "stateMutability": "nonpayable",
      "type": "function"
    },
    {
      "inputs": [
        {
          "internalType": "enum Megatron.Group",
          "name": "_vote",
          "type": "uint8"
        }
      ],
      "name": "vote",
      "outputs": [],
      "stateMutability": "nonpayable",
      "type": "function"
    },
    {
      "inputs": [
        {
          "internalType": "uint256",
          "name": "",
          "type": "uint256"
        }
      ],
      "name": "votes",
      "outputs": [
        {
          "internalType": "uint256",
          "name": "",
          "type": "uint256"
        }
      ],
      "stateMutability": "view",
      "type": "function"
    }
  ],
  "bytecode": "0x608060405234801561001057600080fd5b50336000806101000a81548173ffffffffffffffffffffffffffffffffffffffff021916908373ffffffffffffffffffffffffffffffffffffffff160217905550610645806100606000396000f3fe608060405234801561001057600080fd5b50600436106100415760003560e01c80630c2d4769146100465780635df8133014610062578063b3f98adc14610092575b600080fd5b610060600480360381019061005b9190610327565b6100ae565b005b61007c60048036038101906100779190610379565b610195565b6040516100899190610471565b60405180910390f35b6100ac60048036038101906100a79190610350565b6101ad565b005b60008054906101000a900473ffffffffffffffffffffffffffffffffffffffff1673ffffffffffffffffffffffffffffffffffffffff163373ffffffffffffffffffffffffffffffffffffffff161461013c576040517f08c379a000000000000000000000000000000000000000000000000000000000815260040161013390610451565b60405180910390fd5b60028060008373ffffffffffffffffffffffffffffffffffffffff1673ffffffffffffffffffffffffffffffffffffffff168152602001908152602001600020600082825461018b919061049d565b9250508190555050565b60016020528060005260406000206000915090505481565b6000600260003373ffffffffffffffffffffffffffffffffffffffff1673ffffffffffffffffffffffffffffffffffffffff168152602001908152602001600020541161022f576040517f08c379a000000000000000000000000000000000000000000000000000000000815260040161022690610431565b60405180910390fd5b600260003373ffffffffffffffffffffffffffffffffffffffff1673ffffffffffffffffffffffffffffffffffffffff168152602001908152602001600020600081548092919061027f9061052f565b9190505550600160008260078111156102c1577f4e487b7100000000000000000000000000000000000000000000000000000000600052602160045260246000fd5b815260200190815260200160002060008154809291906102e090610559565b919050555050565b6000813590506102f7816105d1565b92915050565b60008135905061030c816105e8565b92915050565b600081359050610321816105f8565b92915050565b60006020828403121561033957600080fd5b6000610347848285016102e8565b91505092915050565b60006020828403121561036257600080fd5b6000610370848285016102fd565b91505092915050565b60006020828403121561038b57600080fd5b600061039984828501610312565b91505092915050565b60006103af60108361048c565b91507f6e6f7420656e6f75676820746f6b656e000000000000000000000000000000006000830152602082019050919050565b60006103ef60118361048c565b91507f796f7520617265206e6f74206f776e65720000000000000000000000000000006000830152602082019050919050565b61042b81610525565b82525050565b6000602082019050818103600083015261044a816103a2565b9050919050565b6000602082019050818103600083015261046a816103e2565b9050919050565b60006020820190506104866000830184610422565b92915050565b600082825260208201905092915050565b60006104a882610525565b91506104b383610525565b9250827fffffffffffffffffffffffffffffffffffffffffffffffffffffffffffffffff038211156104e8576104e76105a2565b5b828201905092915050565b60006104fe82610505565b9050919050565b600073ffffffffffffffffffffffffffffffffffffffff82169050919050565b6000819050919050565b600061053a82610525565b9150600082141561054e5761054d6105a2565b5b600182039050919050565b600061056482610525565b91507fffffffffffffffffffffffffffffffffffffffffffffffffffffffffffffffff821415610597576105966105a2565b5b600182019050919050565b7f4e487b7100000000000000000000000000000000000000000000000000000000600052601160045260246000fd5b6105da816104f3565b81146105e557600080fd5b50565b600881106105f557600080fd5b50565b61060181610525565b811461060c57600080fd5b5056fea2646970667358221220513ff48077d2cbc1f346ff14097428bed9a372d0cd495c73a4661860783aad1c64736f6c63430008000033",
  "linkReferences": {},
  "deployedLinkReferences": {}
}